:020000040800F2
:1000000000000120F1480008911900089319000828
:1000100095190008971900089919000800000000B8
:100020000000000000000000000000009B19000814
:100030009D190008000000009F190008A119000880
:100040004149000841490008414900084149000868
:100050004149000841490008414900084149000858
:100060004149000841490008414900084149000848
:1000700041490008A9190008414900084149000800
:10008000414900084149000841490008B9190008E0
:10009000C9190008D9190008E919000841490008E0
:1000A0004149000841490008414900084149000808
:1000B000414900080000000000000000414900081C
:1000C00041490008414900084149000841490008E8
:1000D00041490008414900084149000841490008D8
:1000E00041490008414900080000000000000000EC
:1000F0000000000000000000000000000000000000
:1001000000000000414900080000000041490008CB
:1001100000000000000000004149000841490008BB
:100120004149000841490008414900084149000887
:10013000414900080000000000000000000000002D
:1001400041490008414900084149000800000000F9
:100150004149000841490008414900084149000857
:1001600041490008414900084149000800000000D9
:10017000414900084149000800000000000000005B
:1001800041490008414900084149000800000000B9
:100190000348044B834202D0034B03B11847704716
:1001A0007800002078000020000000000548064983
:1001B0000B1AD90F01EBA301491002D0034B03B175
:1001C00018477047780000207800002000000000E9
:1001D00010B5064C237843B9FFF7DAFF044B13B18F
:1001E0000448AFF300800123237010BD7800002085
:1001F000000000004449000808B5044B1BB1044945
:100200000448AFF30080BDE80840CFE700000000DD
:100210007C0000204449000870B50D4E0D4D761B42
:10022000B61006D0002455F8043B01349847A64286
:10023000F9D1094E094D761B04F084FBB61006D0A7
:10024000002455F8043B01349847A642F9D170BD0B
:10025000584B0008584B00085C4B0008584B0008EE
:10026000830730B548D0541E002A3FD0CAB2034697
:1002700001E0013C3AD303F8012B9D07F9D1032C8F
:100280002DD9CDB245EA05250F2C45EA054536D9CD
:10029000A4F1100222F00F0C03F1200EE6444FEA05
:1002A000121C03F1100242E9045542E902551032D2
:1002B0007245F8D10CF1010214F00C0F03EB02129D
:1002C00004F00F0C13D0ACF1040323F00303043348
:1002D000134442F8045B9342FBD10CF003042CB1AD
:1002E000CAB21C4403F8012B9C42FBD130BD6446CA
:1002F0001346002CF4D1F9E703461446BFE71A462B
:10030000A446E0E708B410B5002A9DB0044633DBEC
:100310004FF40273ADF814300291069120AB17D060
:10032000013A4FF6FF7104920792ADF816101F9A2A
:10033000019302A900F048F9421C01DA8B232360E3
:10034000029B00221A701DB0BDE8104001B070473A
:100350004FF6FF7104920792ADF816101F9A0193A1
:1003600002A900F031F9431C01DA8B2323601DB090
:10037000BDE8104001B070478B2303604FF0FF30A1
:10038000F5E700BF0CB410B51F4B00291C689CB0EA
:1003900035DB4FF40273ADF81430029006901FABBA
:1003A00018D001394FF6FF7204910791ADF816206D
:1003B00002A91E9A0193204600F006F9421C01DAB8
:1003C0008B232360029B00221A701CB0BDE81040F2
:1003D00002B070474FF6FF7204910791ADF81620F6
:1003E00002A91E9A0193204600F0EEF8431C01DAA0
:1003F0008B2323601CB0BDE8104002B070478B23F4
:1004000023604FF0FF30F5E7000000202DE9F047B2
:100410008F689F420C461D46164638D8824688890A
:1004200010F4906F0ED108683D462A46314600F020
:10043000C1FCA2682368D21B2B44A2602360002069
:10044000BDE8F0874B69096903EB4308236808EBB3
:10045000D878A3EB01096B1C4FEA68084B4443456D
:10046000424684BF98464246430513D5114650463E
:1004700000F07AFD074608B321694A4600F000FC07
:10048000A38923F4906343F08003A38107E0086805
:100490001F46CAE7504600F0C1FD074650B107EBC2
:1004A0000900A8EB09032761C4F81480A360206049
:1004B0002F46BAE72169504600F0F8FC0C23CAF831
:1004C0000030A38943F040034FF0FF30A381B7E72A
:1004D0002DE9F04F936883B09146002B6DD01768DB
:1004E0008D6880460C460868083743E0A38913F4FA
:1004F000906F2ED0D4E90415A0EB010A05EB450559
:1005000005EBD5750AEB06006D100130A8422A46AE
:1005100084BF05462A465B0536D51146404600F0A5
:1005200023FD00283AD052462169019000F0A8FB33
:10053000A289019B22F4906242F08002A281A5EB85
:100540000A0203EB0A006561A26023612060354660
:10055000B2465946524600F02DFCD9F80830A16841
:1005600020684D1B50449E1BA5602060C9F80860A0
:100570001EB3083757E902B6002EFAD0B542AA4694
:10058000B4D93546B246E4E7404600F047FD03469D
:100590000028D4D12169404600F088FC0C23C8F81B
:1005A0000030A389002243F040034FF0FF30A381C5
:1005B000C9E9012203B0BDE8F08F0020C9F80400AA
:1005C00003B0BDE8F08F00BF2DE9F04F1C468B89CA
:1005D0001D069DB088468146924603D50B69002BC7
:1005E00000F0EF800023099320238DF82930302379
:1005F0008DF82A309AF800307B4D03940126002BA9
:1006000072D0544603E014F8013F002B76D0252B1E
:10061000F9D1B4EB0A0B74D12278002A64D00023FC
:100620004FF0FF32CDE90523049307938DF8533043
:100630001A93013404E0049A06FA03F31343049373
:10064000A246052214F8011B284600F0C9FA431BF4
:100650000028F0D1049BD80644BF20228DF85320F7
:1006600019079AF8001044BF2B228DF853202A292D
:1006700054D1039A11680432002903927CDB07915C
:100680009AF801100AF1010A2E2959D0574C032279
:10069000204600F0A5FA40B1049B001B402404FA58
:1006A00000F0034304930AF1010A1AF8011B5048B1
:1006B0008DF82810062200F093FA002862D04D4BE6
:1006C000002B52D003AA00924B4B424604A9484645
:1006D000AFF3008007467A1C06D0099B3B44099380
:1006E0009AF80030002B8CD1B8F80C305B0654BF60
:1006F00009984FF0FF301DB0BDE8F08FB4EB0A0B46
:10070000F2D05B46524641464846FFF77FFE013035
:10071000EAD0099B22785B4409937EE7A1F130027D
:10072000092AB1D8079B1AF8011F03EB830302EBD8
:100730004303A1F13002092AF5D92E290793A5D147
:100740009AF801102A2927D1039B9AF802101A68F7
:1007500005920433002A0AF102000393B8BF4FF058
:10076000FF338246B8BF059390E7039B073323F01E
:10077000070308330393B0E7494243F002030791AC
:1007800004937DE703AA00921B4B424604A9484606
:1007900000F0CAF807469EE7A1F130020023092ABB
:1007A00005930AF1010A3FF671AF1AF8011F03EB36
:1007B000830302EB4303A1F13002092AF5D9059323
:1007C00064E7402100F0D0FBC8F80000C8F8100032
:1007D00018B14023C8F8143004E70C23C9F80030DE
:1007E0004FF0FF3087E700BF144B00081C4B000898
:1007F000204B0008000000000D0400082DE9F04720
:1008000091461E460A698B68DDF820809A42B8BF7F
:100810001A46C9F8002091F843300C46054613B13A
:100820000132C9F80020226891065DD5D9F8003060
:100830000233C9F80030226812F0060F11461ED1AB
:10084000E168CB1A002BD8BF114618DD04F1190A54
:10085000002706E0D9F80030E268A2EB030CBC45A3
:100860000CDD0123524631462846C047013007F1CE
:100870000107EFD14FF0FF30BDE8F087216894F811
:100880004330003B18BF01238A060AD5E1185A1CE1
:10089000302081F84300224494F8451082F8431038
:1008A000023304F1430231462846C0470130E1D00B
:1008B000236803F00603042B1DD0A368226993422A
:1008C00025DD00279B1A1F4404F11A09002401E0CA
:1008D000BC421CDA01234A4631462846C047013053
:1008E00004F10104F4D1C5E712F0060F12D0003B69
:1008F00018BF0123D5E7D9F80030E1682269C91A89
:10090000A368934221EAE177DCDC0029DCDC0020EB
:10091000BDE8F087E168D9F80030CB1A002BD8BFCA
:10092000114693DCABE700BF2DE9F043174685B0D5
:100930000A7E0C9D0C460646984601F1430C002A9F
:1009400033D0A2F15803D9B2202967D8202B65D81B
:10095000DFE813F0DE0064006400640064006400FB
:1009600064006400640064006400A3006E0064001E
:100970006400640064006E0064006400640064004D
:1009800021007F00C00064006400AE0064007F00AE
:1009900064006400E50023681A0640F104812B68B6
:1009A0006269191D29601B681A600023E1462361F2
:1009B000CDF800803B4603AA21463046FFF71EFFD4
:1009C000013020D023694A4639463046C0470130BD
:1009D00019D02368E06803999B0719D5431A002BA7
:1009E00016DD04F11909002504E0E0680399431AB3
:1009F000AB420DDD01234A4639463046C04701303F
:100A000005F10105F1D14FF0FF3005B0BDE8F083ED
:100A10008842B8BF084605B0BDE8F083012384F8DA
:100A20004220236104F14209002384F84330BFE7E8
:100A30002368190602D45A0600F1C18029680A68A1
:100A4000043129601146002A6BDBDFF884E10A25B6
:100A500010E02368180640F19C802B68191D29605E
:100A60001968DFF86CE16F2A0CBF08250A250023FE
:100A700084F843306268A260002A7FDB236823F099
:100A80000403236000295BD1002A79D1E146082DB7
:100A900065D0ACEB090323618AE72B680122196852
:100AA00004332B6004F1420984F842102261BBE751
:100AB0002B686268191D2960D3F800900021484610
:100AC00000F08EF8002800F08180A0EB0900606043
:100AD0002061A9E7236843F0200323607822DFF830
:100AE000F4E084F845202A68111D2960190643D4D2
:100AF0005D0641D51188D80744BF43F02003236029
:100B0000002944D1236823F0200323601025AEE799
:100B1000582384F84530DFF8B8E02368E3E723681A
:100B2000DCE76268A2602D20002AC1F1000184F890
:100B3000430002DB23F004032360DFF894E00A257E
:100B4000E146B1FBF5F305FB13100A46AA421EF875
:100B5000001009F8011D1946F3D2082D99D1236818
:100B6000D90796D5626823699A4292DC302309F846
:100B7000013C09F1FF398CE71168BCE70029DFD19E
:100B80009EF8003084F8423004F142097FE71025D6
:100B90006DE713F0400F2B6803F1040129600CBFCF
:100BA000196819885DE713F0400F2B68626903F13B
:100BB000040129601B6814BF1A801A60F5E62A68D0
:100BC000B2F9001004322A600A463CE760687FE709
:100BD000284B00083C4B000800000000000000000B
:100BE00001F0FF01102A2BDB10F0070F08D010F8DE
:100BF000013B013A8B422DD010F0070F42B3F6D1E2
:100C0000F0B441EA012141EA014122F007047FF0FA
:100C100000070023F0E80256083C85EA010586EA51
:100C2000010685FA47F5A3FA87F586FA47F6A5FA8D
:100C300087F68EB9EED1F0BC01F0FF0102F0070299
:100C400032B110F8013B013A83EA010313B1F8D144
:100C50000020704701387047002D06BF3546033825
:100C6000073815F0010F07D1013015F4807F02BF5E
:100C7000013015F4C03F0130F0BC0138704700BFAF
:100C8000844641EA000313F003036DD1403A41D397
:100C900051F8043B40F8043B51F8043B40F8043B56
:100CA00051F8043B40F8043B51F8043B40F8043B46
:100CB00051F8043B40F8043B51F8043B40F8043B36
:100CC00051F8043B40F8043B51F8043B40F8043B26
:100CD00051F8043B40F8043B51F8043B40F8043B16
:100CE00051F8043B40F8043B51F8043B40F8043B06
:100CF00051F8043B40F8043B51F8043B40F8043BF6
:100D000051F8043B40F8043B51F8043B40F8043BE5
:100D1000403ABDD2303211D351F8043B40F8043B85
:100D200051F8043B40F8043B51F8043B40F8043BC5
:100D300051F8043B40F8043B103AEDD20C3205D395
:100D400051F8043B40F8043B043AF9D2043208D08D
:100D5000D2071CBF11F8013B00F8013B01D30B88FF
:100D600003806046704700BF082A13D38B078DD0DD
:100D700010F003038AD0C3F10403D21ADB071CBFAF
:100D800011F8013B00F8013B80D331F8023B20F819
:100D9000023B7BE7043AD9D3013A11F8013B00F852
:100DA000013BF9D20B7803704B7843708B788370DA
:100DB0006046704788420DD98B1883420AD900EBF0
:100DC000020CBAB1624613F801CD02F801CD994286
:100DD000F9D170470F2A0ED8034602F1FF3C4AB101
:100DE0000CF1010C013B8C4411F8012B03F8012F8D
:100DF0006145F9D1704740EA01039B0750D1A2F148
:100E0000100370B501F1200C23F00F0501F1100E55
:100E100000F11004AC441B095EF8105C44F8105C4F
:100E20005EF80C5C44F80C5C5EF8085C44F8085C06
:100E30005EF8045C44F8045C0EF1100EE64504F123
:100E40001004E9D1013312F00C0F01EB031102F091
:100E50000F0400EB031327D0043C24F003064FEAF1
:100E6000940C1E441C1F8E465EF8045B44F8045F1D
:100E7000B442F9D10CF1010402F0030203EB840344
:100E800001EB840102F1FF3C4AB10CF1010C013B82
:100E90008C4411F8012B03F8012F6145F9D170BD85
:100EA00002F1FF3C03469BE72246EBE7002951D0C5
:100EB00038B551F8043C0C1F002BB8BFE4180546A8
:100EC00000F0E6F8274A13682BB1A3420CD9216839
:100ED000601883422CD0636028461460BDE8384017
:100EE00000F0D8B8A3420FD81A465B68002BF9D19E
:100EF00011685018844217D02DD36360546028467F
:100F0000BDE8384000F0C6B811685018A04215D0AE
:100F100021D8216860188342EFD118685B680144CA
:100F2000C4E900135460EAE7236819441160E6E756
:100F300018685B680144C4E90013CDE720680144E8
:100F4000501883421160DAD1D3E900030144C2E9A9
:100F50000013D4E770470C232B602846BDE83840C7
:100F600000F098B894000020F8B5CD1C25F00305DA
:100F700008350C2D38BF0C25002D064623DBA94271
:100F800021D8254F00F084F83A6822B3144603E0D4
:100F900063682246FBB11C4623685B1BF8D40B2B0D
:100FA00015D8636894420CBF3B605360304600F034
:100FB00071F804F10B00231D20F00700C21A01D0C4
:100FC0001B1AA350F8BD0C2333600020F8BD23602A
:100FD0001C442560EAE77968C9B12946304600F02B
:100FE00045F8431C0CD0C41C24F00304A04205D0D7
:100FF000211A304600F03AF8013001D02560D5E7DB
:101000000C233046336000F045F80020F8BD304630
:1010100000F02CF87860E0E794000020F8B5144662
:10102000F9B1CAB106460D4600F036F8A04202D327
:101030002F463846F8BD21463046FFF795FF074654
:101040000028F6D022462946FFF71AFE30462946E8
:10105000FFF72CFF3846F8BD2746FFF727FF384635
:10106000F8BDBDE8F8401146FFF77EBF38B5074D23
:101070000022044608462A6000F018F8431C00D0FD
:1010800038BD2B68002BFBD0236038BD9C000020AE
:10109000704700BF704700BF51F8040C0028A0F152
:1010A0000400BCBF0B58C018704700BF044A054974
:1010B0001368002B08BF0B46184410601846704791
:1010C000A0000020F811002053B94AB9002908BF38
:1010D00000281CBF4FF0FF314FF0FF3000F074B913
:1010E000ADF1080C6DE904CE00F006F8DDF804E07F
:1010F000DDE9022304B070472DE9F047089E0D4654
:1011000004468846002B4DD18A42944668D9B2FAEB
:1011100082F252B101FA02F3C2F1200120FA01F188
:101120000CFA02FC41EA030894404FEA1C45210CEA
:10113000B8FBF5FE1FFA8CF705FB1E8341EA03435B
:101140000EFB07F199420BD91CEB03030EF1FF30A4
:1011500080F01E81994240F21B81AEF1020E634481
:101160005B1AA4B2B3FBF5F005FB103344EA034469
:1011700000FB07F7A7420AD91CEB040400F1FF3378
:1011800080F00881A74240F2058164440238E41BE4
:1011900040EA0E4000211EB1D4400023C6E90043BE
:1011A000BDE8F0878B4208D9002E00F0EE800021C8
:1011B000C6E900050846BDE8F087B3FA83F10029C7
:1011C0004AD1AB4202D3824200F2F980841A65EB25
:1011D000030301209846002EE2D0C6E90048DFE76D
:1011E00002B9FFDEB2FA82F2002A40F09180A1EB50
:1011F0000C054FEA1C471FFA8CFE0121B5FBF7F3E3
:1012000007FB1350250C45EA00450EFB03F0A842EE
:1012100008D91CEB050503F1FF3802D2A84200F201
:10122000CB8043462D1AA4B2B5FBF7F007FB10554F
:1012300044EA05440EFB00FEA64508D91CEB040455
:1012400000F1FF3502D2A64500F2BB802846A4EB90
:101250000E0440EA03409EE7C1F120078B4022FACA
:1012600007FC4CEA030C20FA07F405FA01F31C43CF
:10127000FD404FEA1C4900FA01F3B5FBF9F8200CD8
:101280001FFA8CFE09FB185540EA054508FB0EF0D5
:10129000A84202FA01F20BD91CEB050508F1FF3A4E
:1012A00080F08880A84240F28580A8F10208654459
:1012B0002D1AA4B2B5FBF9F009FB105544EA054517
:1012C00000FB0EFEAE4508D91CEB050500F1FF340E
:1012D0006CD2AE456AD90238654440EA0840A0FBAA
:1012E0000294A5EB0E05A542C846A64656D353D098
:1012F0005EB1B3EB080265EB0E0505FA07F722FABB
:1013000001F3CD401F43C6E900750021BDE8F08719
:10131000C2F1200320FA03F10CFA02FC25FA03F3D0
:1013200095400D434FEA1C471FFA8CFEB3FBF7F1C3
:1013300007FB11302B0C43EA004301FB0EF09842EF
:1013400004FA02F408D91CEB030301F1FF382FD291
:1013500098422DD9023963441B1AADB2B3FBF7F0A2
:1013600007FB103345EA034500FB0EF3AB4208D9F7
:101370001CEB050500F1FF3816D2AB4214D9023838
:101380006544ED1A40EA014138E73146304607E747
:101390008646E5E61846FAE64B45A9D2B9EB0208BF
:1013A00064EB0C0E0138A3E74046EAE7204694E7D9
:1013B0004146D1E7D0467BE7023B654432E7084629
:1013C00009E76444023842E7704700BF00B583B0C4
:1013D0000A4B9A6C42F001029A649B6C03F0010381
:1013E0000193019B002211460D2000F0DFFF0D202C
:1013F00001F014F803B05DF804FB00BF00100240D8
:1014000070B588B00024039404940594069407945E
:101410001C4BDA6C42F00102DA64DA6C02F0010271
:101420000192019ADA6C42F00202DA64DB6C03F09A
:1014300002030293029B144E22464FF40061304691
:1014400001F072FA22464FF480514FF0904001F0C3
:101450006BFA4FF4006303930125049505940694F9
:1014600003A9304601F078F94FF4805303930495B3
:101470000594069403A94FF0904001F06DF908B06F
:1014800070BD00BF001002400004004809490B680D
:101490005A1C0A60D2B2084911F802C003F1560280
:1014A000D2B28A5CAB33DBB2C85C130243EA0C43B2
:1014B00018437047F0110020CC49000808B50268B5
:1014C000044B9A4200D008BD0021034802F00CFEF4
:1014D000F9E700BF0044014018010020962303FBF8
:1014E00001F14D2303FB0011C2EBC20002EB8000AF
:1014F0000844C0F30F20B42101FB00F0C0F3072023
:101500007047000070B582B02A4BB3F800C00CF1F0
:101510000A0C1FFA8CFCA3F800C04FEA1C23264AD1
:10152000A2FB0312D20802EB4202A3EB82039BB29E
:101530005FFA8CFC214A03EB43015418505AA178FE
:10154000ADF804008DF80610013303EB4303D11806
:10155000D25A8B78ADF800208DF802309DF8044007
:101560009DF800301B1B0CFB03F304EB2324E4B2B7
:101570009DF805609DF80100801B0CFB00F006EB58
:101580002020C6B29DF806509DF802305B1B0CFB74
:1015900003FC05EB2C25EDB22A4631462046FFF729
:1015A0009DFF240444EA006444EA0620284302B074
:1015B00070BD00BFEC110020ABAAAAAAA449000884
:1015C00038B51B4B1B78012B07D01A4B1B7853B92E
:1015D000194B1B7823B9002006E0FFF757FF03E003
:1015E000FFF790FF00E015484FF0000E18E00131C2
:1015F000013A002A12DB01239340034005D101EB9D
:101600004E1C0F4C1E2544F82C50002BEFD001EB44
:101610004E130B4C292544F82350E8E70EF1010E38
:10162000BEF11F0F02DC1F220021E2E738BD00BF20
:1016300064000020A4000020A50000202368C7004B
:10164000EC0100200268344B9A4200D07047F0B59C
:10165000ADB00AAB0CAA002100F09EFC08B12DB081
:10166000F0BD4FF400612D4801F063F99DF828307A
:101670009DF829209DF82A109DF82B009DF82C40FC
:101680009DF82D509DF82E609DF82F7008970796B5
:10169000069505940490039102920193109B009388
:1016A0000C9B1F4A642113A8FEF76CFE4FF0FF331A
:1016B00082B213A91B4803F01BF89DF8283013F0E1
:1016C000010F08D0184B01221A700023174A13701B
:1016D000174A1370C3E713F0020F08D0134B01220F
:1016E0001A700023104A1370114A1370B7E713F0F1
:1016F000040F08D00E4B01221A7000230A4A1370FF
:101700000A4A1370ABE70023074A1370074A1370A5
:10171000074A1370A3E700BF0064004000040048BC
:10172000604900086401002064000020A40000203B
:10173000A500002072B6FEE710B592B000240B940D
:101740000C940D940E940F94109411942C22214615
:101750006846FEF785FD1E481E4B036044608460AA
:101760003223C36004614461846102F00FFA30BB2C
:10177000174802F03BFA20BB60230B9319230C930C
:1017800000220D920E920F92109211920BA9104806
:1017900002F09AFAB8B900230093019302930393DD
:1017A00004934FF4005205920A936946084802F0E8
:1017B0002BFD50B9064800F0C9F912B010BDFFF773
:1017C000B9FFFFF7B7FFFFF7B5FFFFF7B3FF00BFA4
:1017D000180100200044014008B50D480D4B03607E
:1017E0001423436000228260C2604FF440230361EF
:1017F0004FF4801343610276012343768376C376E8
:101800000277437700F06EFA00B908BDFFF792FF48
:10181000A80000200064004008B50B480B4B036093
:101820004FF4E133436000238360C36003610C2203
:1018300042618361C3610362436203F027F800B928
:1018400008BDFFF777FF00BF6401002000380140AA
:1018500000B597B04422002105A8FEF701FD002342
:10186000009301930293039304934FF4007001F0EB
:1018700071F828BB1023059301220B9200230C93CF
:1018800060230D9302230F9310921192282212923B
:10189000072213921493159305A801F045F988B90E
:1018A0000F230093032301930023029303930493D4
:1018B0000421684601F06EFC30B917B05DF804FBF6
:1018C000FFF738FFFFF736FFFFF734FF30B593B06F
:1018D00000F0D2F9FFF7BCFFFFF792FDFFF776FDAE
:1018E000FFF72AFFFFF778FFFFF796FF0024009429
:1018F000019402940394049405940694012307939D
:10190000089309941E4D6946284600F091FA28462E
:1019100000F014FB0221284600F0F3FB224621468A
:10192000142000F043FD142000F078FD40F2231352
:101930000C930D940E940F94082310938DF844404B
:101940008DF82C408DF82D408DF82E408DF82F40CD
:10195000284600F0F3FA4FF400610A4800F0E9FF6E
:10196000FFF72EFE08480368002159624FF4806398
:10197000064A02F055FA0A2000F0A0F9EBE700BF92
:10198000A80000200004004818010020EC010020FD
:10199000FEE7FEE7FEE7FEE7FEE7704770477047A9
:1019A00008B500F079F908BD08B5024800F060FEFE
:1019B00008BD00BFD000002008B5024800F0BFFB02
:1019C00008BD00BFA800002008B5024800F0B7FB22
:1019D00008BD00BFA800002008B5024800F0AFFB1A
:1019E00008BD00BFA800002008B5024800F0A7FB12
:1019F00008BD00BFA800002082B00A4B1A6E42F05A
:101A000001021A661A6E02F001020092009A9A6DA3
:101A100042F080529A659B6D03F080530193019BC5
:101A200002B070470010024000B589B00023039354
:101A300004930593069307930268244B9A4202D0BD
:101A400009B05DF804FB03F5D6339A6D42F00072DD
:101A50009A659A6D02F000720192019ADA6C42F076
:101A60000202DA64DB6C03F002030293029B4FF480
:101A700040730393022304930323069309230793DC
:101A800003A9134800F068FE00221146132000F05D
:101A90008DFC132000F0C2FC00221146142000F03F
:101AA00085FC142000F0BAFC00221146152000F03D
:101AB0007DFC152000F0B2FC00221146162000F03B
:101AC00075FC162000F0AAFCBAE700BF00640040D5
:101AD0000004004802681A4B9A4200D0704710B5C3
:101AE00082B0044603F54C431A6E42F400321A6683
:101AF0001B6E03F400330193019B1248124B0360E9
:101B000004234360102383600023C36080220261AA
:101B10004FF4807242614FF480628261C3614FF47E
:101B20004053036200F0B8FC30B9064B63629C621C
:101B300023629C6202B010BDFFF7FCFDF5E700BF19
:101B400000440140D00000203000024000B587B0C2
:101B500000230193029303930493059302680E4BB1
:101B60009A4202D007B05DF804FB03F54C43DA6CEF
:101B700042F00102DA64DB6C03F001030093009B86
:101B800040230193022302930E23059301A94FF0F2
:101B9000904000F0E1FDE5E70044014010B59EB043
:101BA0000446002119911A911B911C911D915C22F0
:101BB00002A8FEF755FB2268184B9A4201D01EB0CE
:101BC00010BD0123029302A801F088FC18BB144B3E
:101BD0001A6E42F480421A661A6E02F48042009233
:101BE000009ADA6C42F00102DA64DB6C03F0010364
:101BF0000193019B4FF4C063199302231A930023AE
:101C00001B9303231C9307231D9319A94FF09040A6
:101C100000F0A2FDD3E7FFF78DFDD8E700380140C3
:101C20000010024070470000104B1B780BB90120D8
:101C3000704710B504464FF47A70B0FBF3F30C4ACA
:101C40001068B0FBF3F000F0F7FB68B90F2C01D976
:101C500001200AE0002221464FF0FF3000F0A6FBF1
:101C6000044B1C60002000E0012010BD6C0000202F
:101C7000680000207000002010B5032000F084FBF5
:101C80000F20FFF7D1FF10B10124204610BD0446FC
:101C9000FFF7B2FEF9E70000034B1B78034A116817
:101CA0000B441360704700BF6C000020F41100204B
:101CB000014B1868704700BFF411002038B5044686
:101CC000FFF7F6FF0546B4F1FF3F02D0044B1B7847
:101CD0001C44FFF7EDFF401BA042FAD338BD00BF04
:101CE0006C000020002800F0A18038B5044690F870
:101CF0002030D3B12268136843F001031360FFF76B
:101D0000D7FF054623685A6812F0010F10D1FFF77C
:101D1000CFFF401B0A28F5D9636A43F4003363629E
:101D2000052384F82030012038BDFFF77DFEE1E770
:101D30001A6822F002021A60FFF7BAFF054623680C
:101D40005A6812F0020F0DD0FFF7B2FF401B0A28AD
:101D5000F5D9636A43F400336362052384F82030C5
:101D60000120E1E7227E012A3DD01A6822F080029C
:101D70001A60637E012B3BD02268136823F0400376
:101D80001360A37E012B39D02268136823F020034F
:101D90001360E37E012B37D02268136843F01003F1
:101DA0001360237F012B35D02268136823F00803CA
:101DB0001360637F012B33D02268136823F0040380
:101DC0001360A368E26813432269134362691343F3
:101DD0006268013A21681343CB61002060620123ED
:101DE00084F82030A0E71A6842F080021A60C0E749
:101DF0002268136843F040031360C2E72268136847
:101E000043F020031360C4E72268136823F0100333
:101E10001360C6E72268136843F008031360C8E73D
:101E20002268136843F004031360CAE70120704777
:101E300090F82030013BDBB2012B05D9436A43F413
:101E4000802343620120704710B50368D3F8002255
:101E500042F00102C3F800224A6902F01F02012089
:101E600000FA02F2D3F81C026FEA020C20EA020028
:101E7000C3F81C02C869C0B9D3F80C020CEA000010
:101E8000C3F80C028C884869D1F80CE044EA0E448F
:101E9000483043F830400C884869D1F808E044EAFB
:101EA0000E44483003EBC0004460C86901281AD0D2
:101EB000886988BBD3F804020CEA0000C3F8040266
:101EC000086978BBD3F814020CEA0000C3F81402C6
:101ED000096A01292CD0D3F8002222F00102C3F8AC
:101EE0000022002010BDD3F80C021043C3F80C02EE
:101EF0008C884869D1F800E044EA0E44483043F841
:101F000030408C894869D1F808E044EA0E444830F2
:101F100003EBC0004460CBE7D3F804021043C3F8DE
:101F20000402CDE7D3F814021043C3F81402CFE73C
:101F3000D3F81C120A43C3F81C22CCE770B5044640
:101F400090F82050EDB2012D06D0436A43F40023EF
:101F500043620125284670BD022380F820300268C4
:101F6000136823F001031360FFF7A2FE06462368FF
:101F70005B6813F0010F0CD0FFF79AFE831B0A2B4E
:101F8000F5D9636A43F400336362052384F8203093
:101F9000E0E700256562DDE790F820C00CF1FF3C2A
:101FA0005FFA8CFCBCF1010F00F2A58030B451B98E
:101FB0000468E46814F0030F10D1436A43F400137B
:101FC000436201207EE00468246914F0030F05D108
:101FD000436A43F400134362012073E0056801F192
:101FE0001B0424012C5904F004049460002C6BD1D0
:101FF000056801F11B0424012C59640D1460046868
:1020000001F11B0C4FEA0C1C54F80C4004F00204C4
:10201000D4600468A444DCF8045015F0080F5BD0C9
:1020200008241461056801F11B0C05EB0C156D68A3
:10203000C5F307259561046804EB0C146468240C4F
:102040005461026802EB0112D2F8B8211A700268DA
:1020500002EB0112D2F8B821C2F307225A700268CB
:1020600002EB0112D2F8B821C2F307429A7002685B
:1020700002EB0112D2F8B821120EDA70026802EBFC
:102080000112D2F8BC211A71026802EB0112D2F8D7
:10209000BC21C2F307225A71026802EB0112D2F886
:1020A000BC21C2F307429A71026802EB0112D2F816
:1020B000BC21120EDA71C1B90268D36843F0200363
:1020C000D360002030BC7047056801F11B04240177
:1020D0002C59E408546092E701F11B0504EB051448
:1020E000646804F00F0414619CE70268136943F00C
:1020F00020031361E5E7436A43F480234362012030
:10210000704790F82030013BDBB2012B05D9436AC0
:1021100043F48023436201207047026853691943E6
:102120005161002070477047704770477047704793
:1021300070477047704770477047704770472DE988
:10214000F84F054603685C69D3F804809F68D3F8AC
:102150000CB0D3F810A0D3F8189014F001063BD0BF
:1021600017F0010616D001229A6017F0020F08D16D
:1021700017F0040F0CD117F0080606D04FF4805664
:1021800008E0FFF7D0FF002604E0FFF7CFFF01E0F3
:102190004FF4006617F4807F0DD02B684FF48072E7
:1021A0009A6017F4007F40F0868017F4806F00F08B
:1021B000868046F4005617F4803F0DD02B684FF40C
:1021C00080329A6017F4003F40F0838017F4802F2C
:1021D00000F0838046F4004614F0080F07D01BF08F
:1021E000100F04D046F400762B681022DA6014F049
:1021F000040F02D01BF0080F79D114F0020F04D0A5
:102200002B68DB6813F0030F78D114F0400F07D070
:102210001AF0100F04D046F480662B6810221A6161
:1022200014F0200F02D01AF0080F6BD114F0100F29
:1022300004D02B681B6913F0030F6AD114F4003F1C
:1022400002D018F0100F68D114F4803F02D018F0BB
:10225000080F69D114F4004F7AD018F0040F74D02D
:1022600014F4807F04D019F0010F01D046F001066C
:1022700014F4007F04D019F0020F01D046F00206DA
:1022800014F4806F04D019F0040F01D046F0040656
:1022900014F4006F59D019F0700956D0B9F1400FFD
:1022A00065D058D8B9F1200F5ED0B9F1300F42D1C6
:1022B00046F0200644E02846FFF736FF7BE717F498
:1022C000006F02D046F4804675E72846FFF72FFFDF
:1022D00071E72846FFF729FF7EE717F4002F02D0A9
:1022E00046F4803678E72846FFF722FF74E72B682C
:1022F0000822DA602846FFF71CFF7EE72846FFF732
:10230000A1F982E72B6808221A612846FFF713FF1C
:102310008CE72846FFF70EFF90E72B6810225A60E3
:102320002846FFF709FF8FE72B6808225A602846E6
:10233000FFF703FF8EE7B9F1100F01D146F0080651
:102340002A68936923F0700393612B6804225A6012
:102350009EB9BDE8F88FB9F1500F0BD0B9F1600FFD
:10236000EED146F48076EBE746F01006E8E746F05B
:102370004006E5E746F08006E2E76B6A1E436E62C0
:102380002846FFF7DBFEE4E7074AD36823F4E0635F
:102390001B041B0C000200F4E060034343F0BF6326
:1023A00043F40033D360704700ED00E000B5194BF3
:1023B000DB68C3F30223C3F1070CBCF1040F28BF91
:1023C0004FF0040C03F1040EBEF1060F18D9033BC5
:1023D0004FF0FF3E0EFA0CFC21EA0C0199400EFA78
:1023E00003F322EA0303194300280BDB0901C9B2F6
:1023F00000F1604000F5614080F800135DF804FBD7
:102400000023E5E700F00F000901C9B2024B19549F
:10241000F4E700BF00ED00E014ED00E0002807DB6A
:1024200000F01F02400901239340024A42F8203085
:10243000704700BF00E100E00138B0F1807F0BD2AF
:102440004FF0E0235861054AF02182F82310002064
:10245000986107221A6170470120704700ED00E083
:1024600010B4446C04F01C0C012404FA0CF4D0F8F1
:1024700040C0CCF80440046863608368102B05D02A
:10248000036899600368DA6010BC704703689A605B
:102490000368D960F8E70000002875D010B403463F
:1024A00001683A4A91424CD8394A0A443948A0FB5B
:1024B0000202120992005A64374A1A64022283F80F
:1024C00025200A6822F4FF4222F070020A60186890
:1024D00001689A68DC6822431C6922435C692243D4
:1024E0009C692243DC6922431C6A22430A4302603E
:1024F0009A68B2F5804F1BD0196C274A91422BD0B5
:10250000254AD2F8A814586C00F01C0C0F2000FAD1
:102510000CF021EA0001C2F8A814D2F8A8145868F7
:102520005C6C04F01C0C00FA0CF00143C2F8A81417
:102530000020D863012283F8252083F8240010BCF2
:102540007047164A0A441348A0FB0202120992007F
:102550005A64134A1A64B1E7D2F8A810586C00F014
:102560001C0C0F2000FA0CF021EA0001C2F8A810A0
:10257000D2F8A81058685C6C04F01C0C00FA0CF03F
:102580000143C2F8A810D3E70120704707040240B6
:10259000F8FFFDBFCDCCCCCC00000240F8FBFDBF66
:1025A0000004024038B5044690F82400012834D0D5
:1025B000012084F8240094F82500C0B2012806D038
:1025C0008023E363002384F82430012038BD0220F7
:1025D00084F825000020E0632568286820F00100C9
:1025E00028602046FFF73CFF236B5BB1226813682D
:1025F00043F00E0313602268136843F00103136075
:102600000020E3E72268136823F0040313602268C4
:10261000136843F00A031360EDE70220D6E708B51C
:1026200090F82530DBB2022B03D00423C3630120D2
:1026300008BD0268136823F0010313600268136881
:1026400023F00E031360436C03F01C03016C0122A2
:1026500002FA03F34B6080F82520002380F8243031
:10266000836B13B198470020E2E70020E0E7000009
:1026700038B5036C196804682568436C03F01C03C3
:1026800004229A400A4215D015F0040F12D0236894
:1026900013F0200F03D1236823F004032360436C5D
:1026A00003F01C02016C042393404B60036B03B1E5
:1026B000984738BD02229A400A4228D015F0020FEE
:1026C00025D0236813F0200F06D1236823F00A03D6
:1026D0002360012380F8253002681C4B9A420ED9F2
:1026E000436C03F01C0202239340194A53600023F9
:1026F00080F82430C36A002BDBD09847D9E7436CBD
:1027000003F01C0202239340124A5360EFE70822B1
:1027100002FA03F30B42CCD015F0080FC9D023689E
:1027200023F00E032360436C03F01C03016C0122B1
:1027300002FA03F34B60C26380F82520002380F87F
:102740002430436B002BB4D09847B2E7800002409E
:10275000000402400000024070B582B0002365E032
:1027600085685E000324B44025EA0405CC68B440C3
:102770002C438460446824EA0C0C4C68C4F30014B5
:102780009C4044EA0C04446061E0DD08083550F8E0
:10279000256003F007044FEA840C0F2404FA0CF4BC
:1027A00026EA040E0C6904FA0CF444EA0E0440F81C
:1027B000254063E0042400E0002404FA0EF42C43D6
:1027C0000CF1020C544D45F82C40544CA568D443F0
:1027D00025EA0206D1F804C01CF4801F01D042EAA9
:1027E00005064E4DAE60ED6804EA0506D1F804C05A
:1027F0001CF4001F01D042EA0506484DEE606D68EA
:1028000004EA0506D1F804C01CF4003F01D042EAF6
:102810000506424D6E602D682C404E6816F4803FD0
:1028200001D042EA05043D4A146001330A6832FAD5
:1028300003F46ED04FF0010C0CFA03FC1CEA020208
:10284000F3D04C6804F00304013C012C88D94C6897
:1028500004F00304032C0CD0C4685D004FF0030C9B
:102860000CFA05FC24EA0C0C8C68AC4044EA0C041D
:10287000C4604C6804F00304022C86D004684FEA5C
:10288000430E4FF0030C0CFA0EFC24EA0C0C4C68BF
:1028900004F0030404FA0EF444EA0C0404604C68E7
:1028A00014F4403FC1D01E4C256E45F0010525664D
:1028B000246E04F001040194019C4FEA930C0CF186
:1028C0000205154C54F8255003F003044FEA840E1A
:1028D0000F2404FA0EF425EA0405B0F1904F3FF4FA
:1028E0006BAF104CA0420ED004F58064A0420CD017
:1028F00004F58064A0420AD004F58064A0423FF44D
:1029000059AF072459E7012457E7022455E7032468
:1029100053E702B070BD00BF000001400004014059
:1029200000100240000400480AB1816170478162D2
:102930007047436901EA030221EA030141EA0241C7
:1029400081617047024B186800F4C060704700BF97
:1029500000700040B0F5007F0FD01F4B1B6803F4E0
:10296000C063B3F5806F34D01B4A136823F4C0638F
:1029700043F48063136000207047174B1B6803F417
:10298000C063B3F5007F20D0134A136823F4C063FB
:1029900043F400731360114B1B68322202FB03F3F4
:1029A0000F4AA2FB03239B0C013300E0013B0A4AC0
:1029B000526912F4806F01D0002BF7D1064B5B698E
:1029C00013F4806F03D1002070470020704703206C
:1029D00070470020704700BF007000406800002072
:1029E00083DE1B4330B583B00446204B9B6D13F050
:1029F000805F0BD0FFF7A6FFB0F5007F17D0802CCB
:102A00001FD82DD0702C2DD000211BE0174DAB6DA1
:102A100043F08053AB65AB6D03F080530193019B92
:102A2000FFF790FFAB6D23F08053AB65E4E7802C9C
:102A300003D9A02C03D9022104E0002102E00121E6
:102A400000E003210A4A136823F007030B431360D5
:102A5000136803F007038B4206D1002003B030BD9A
:102A60000221EFE70121EDE70120F7E70010024026
:102A700000200240284A9368D26802F0030213F053
:102A80000C030AD00C2B06D0042B1FD0082B20D00F
:102A90000020024610E0012AF6D11F4A126812F007
:102AA000080F0CD11C4AD2F89420C2F303221B4910
:102AB00051F8222043B100200C2B0DD07047164A4C
:102AC0001268C2F30312F2E71046F5E71448002239
:102AD000F2E714480022EFE70F4BDB6803F0030333
:102AE000022B16D0032B00D10E4A0B49C868C0F345
:102AF0000210431CC868C0F3062002FB00F0B0FBC4
:102B0000F3F0CB68C3F3416301335B00B0FBF3F038
:102B1000D4E7034AE9E700BF00100240E44A000896
:102B20000024F40000127A00002800F01C83F0B5A5
:102B300083B00446964B9D6805F00C05DE6806F0F0
:102B40000306036813F0100F5AD0E5B10C2D18D00E
:102B5000A369002B00F0BB808D4A136843F001038A
:102B60001360FFF7A5F80746894B1B6813F0020FA7
:102B700040F09A80FFF79CF8C01B0228F4D903208C
:102B8000FCE2012EE4D1824B1B6813F0020F03D04C
:102B9000A369002B00F0E982206A7D4B1B6813F0CB
:102BA000080F5BD07A4B1B6803F0F00398425CD8A7
:102BB000774B1A6842F008021A601A6822F0F00295
:102BC000216A0A431A605A6822F47F42E16942EAA4
:102BD00001225A60002D60D0FFF74CFF6C4B9B68C0
:102BE000C3F303136B4AD35C03F01F03D8406A4B53
:102BF00018606A4B1868FFF717F8002840F0BE828B
:102C0000236813F0010F00F08180082D75D00C2D82
:102C100071D06368B3F5803F00F09780B3F5A02FC3
:102C200000F099805A4B1A6822F480321A601A68B0
:102C300022F480221A606368002B00F09980FFF76D
:102C400037F80746524B1B6813F4003F5ED1FFF77D
:102C50002FF8C01B6428F5D903208FE24C4BD3F822
:102C600094301B0903F0F003A0E7FFF7BBFE002838
:102C700040F07D82464B1A6842F008021A601A68DA
:102C800022F0F002216A0A431A605A6822F47F4255
:102C9000E16942EA01225A609EE7206AFFF7A2FE3C
:102CA000002899D0012069E2394B1A6842F00802E5
:102CB0001A601A6822F0F002216A0A431A605A6800
:102CC00022F47F42E16942EA01225A6098E7304AE1
:102CD000136823F001031360FEF7EAFF07462C4B4D
:102CE0001B6813F0020F8BD0FEF7E2FFC01B022817
:102CF000F5D9032042E2032E8BD1254B1B6813F438
:102D0000003F03D06368002B00F03382236813F088
:102D1000020F58D0042D45D00C2D41D0E368002B74
:102D200077D01B4A136843F480731360FEF7C0FF2B
:102D30000646174B1B6813F4806F61D1FEF7B8FF8E
:102D4000801B0228F5D9032018E2114A136843F4C6
:102D5000803313606FE703F18043A3F53C331A68B7
:102D600042F480221A601A6842F480321A6062E7E4
:102D7000FEF79EFF0746064B1B6813F4003FC5D0C5
:102D8000FEF796FFC01B6428F5D90320F6E100BFCB
:102D900000100240CC4A00086800002070000020AB
:102DA000022EBBD1A44B1B6813F4806F03D0E368E1
:102DB000002B00F0E081A04A536823F0F85321690A
:102DC00043EA01635360236813F0080F4CD0636932
:102DD0009BB3994AD2F8943043F00103C2F894307F
:102DE000FEF766FF0646944BD3F8943013F0020FBB
:102DF0003AD1FEF75DFF801B0228F4D90320BDE124
:102E00008D4A536823F0F853216943EA0163536004
:102E1000D9E7894A136823F480731360FEF748FFEB
:102E20000646854B1B6813F4806FCCD0FEF740FF3D
:102E3000801B0228F5D90320A0E17F4AD2F8943004
:102E400023F00103C2F89430FEF732FF06467A4BB6
:102E5000D3F8943013F0020F06D0FEF729FF801B41
:102E60000228F4D9032089E1236813F0040F7AD0F3
:102E7000714B9B6D13F0805F36D16F4B9A6D42F0B2
:102E800080529A659B6D03F080530193019B01264C
:102E90006A4B1B6813F4807F28D0A368012B39D0BC
:102EA000052B3FD0644BD3F8902022F00102C3F8E9
:102EB0009020D3F8902022F00402C3F89020A36859
:102EC000002B3DD0FEF7F4FE07465B4BD3F8903065
:102ED00013F0020F46D1FEF7EBFEC01B41F2883320
:102EE0009842F2D9032049E10026D1E7534A1368FA
:102EF00043F480731360FEF7DBFE07464F4B1B68FD
:102F000013F4807FC9D1FEF7D3FEC01B0228F5D988
:102F1000032033E1484AD2F8903043F00103C2F86D
:102F20009030CCE7444BD3F8902042F00402C3F831
:102F30009020D3F8902042F00102C3F89020BEE721
:102F4000FEF7B6FE07463C4BD3F8903013F0020F65
:102F500008D0FEF7ADFEC01B41F288339842F2D98B
:102F600003200BE1E6B9236813F0200F35D0636A24
:102F7000E3B1314AD2F8983043F00103C2F89830F7
:102F8000FEF796FE06462C4BD3F8983013F0020F4E
:102F900023D1FEF78DFE801B0228F4D90320EDE03B
:102FA000254A936D23F080539365DCE7224AD2F8DB
:102FB000983023F00103C2F89830FEF779FE0646F8
:102FC0001D4BD3F8983013F0020F06D0FEF770FEB9
:102FD000801B0228F4D90320D0E0A36A002B00F064
:102FE000CC80022B17D00C2D00F0CC80124A136835
:102FF00023F080731360FEF75BFE04460E4B1B68E4
:1030000013F0007F00F0A880FEF752FE001B02289C
:10301000F4D90320B2E0084BDB6803F00301E26A55
:1030200091420DD00C2D00F0AB80034B1B6813F0C8
:10303000806F2FD00120A1E00010024000700040FE
:1030400003F07002216B0139B2EB011FEAD103F4E6
:10305000FE42616BB2EB012FE4D103F07842A16B29
:10306000B2EBC16FDED103F4C001E26B5208013A4A
:10307000B1EB425FD6D103F0C063226C5208013A33
:10308000B3EB426FCED1404B1B6813F0007F49D0A9
:10309000002073E03C4A136823F080731360FEF74E
:1030A00007FE0546384B1B6813F0007F06D0FEF77D
:1030B000FFFD401B0228F5D903205FE0324AD368A8
:1030C00032491940E36A206B013843EA0013606B10
:1030D00043EA0023E06B4008013843EA4053206C88
:1030E0004008013843EA4063A06B43EAC0630B43E6
:1030F000D360136843F080731360D36843F0807328
:10310000D360FEF7D5FD04461F4B1B6813F0007F0C
:1031100006D1FEF7CDFD001B0228F5D903202DE0D6
:1031200000202BE0184B1A6842F080721A60DA68AF
:1031300042F08072DA60FEF7BBFD0446124B1B685A
:1031400013F0007F06D1FEF7B3FD031B022BF5D968
:10315000032013E0002011E00B4AD1680C4B0B4018
:10316000D36000200AE001207047012006E0012022
:1031700004E0012002E0012000E0002003B0F0BDE7
:103180000120FBE70120F9E7001002408C809D013F
:10319000FCFFEEFE002800F0AF8070B50D4604463F
:1031A000594B1B6803F007038B420BD2564A136836
:1031B00023F007030B431360136803F007038B42EC
:1031C00040F09C80236813F0020F0CD0A2684F4B94
:1031D0009B6803F0F0039A4205D94C498B6823F0B1
:1031E000F0031A438A60236813F0010F39D0636833
:1031F000032B09D0022B26D063BB444A126812F07D
:10320000020F06D1012076E0404A126812F0007FDA
:1032100076D03E498A6822F0030213438B60FEF7A2
:1032200047FD0646394B9B6803F00C036268B3EB1D
:10323000820F16D0FEF73CFD801B41F28833984286
:10324000F0D9032057E0314A126812F4003FE0D170
:10325000012050E02D4A126812F4806FD9D101206C
:1032600049E0236813F0020F0CD0A268274B9B683B
:1032700003F0F0039A4205D224498B6823F0F0034F
:103280001A438A60204B1B6803F00703AB420AD93C
:103290001D4A136823F007032B431360136803F0E0
:1032A0000703AB422ED1236813F0040F06D0174A50
:1032B000936823F4E063E1680B439360236813F0A1
:1032C000080F07D0114A936823F46053216943EA39
:1032D000C1039360FFF7CEFB0C4B9B68C3F3031352
:1032E0000B4AD35C03F01F03D8400A4B18600A4B0B
:1032F0001868FEF799FC70BD012070470120FAE7BD
:103300000120F8E70120F6E700200240001002400B
:10331000CC4A00086800002070000020014B1868AB
:10332000704700BF6800002008B5FFF7F7FF054BA6
:103330009B68C3F30223044AD35C03F01F03D84005
:1033400008BD00BF00100240DC4A000808B5FFF7C6
:10335000E5FF054B9B68C3F3C223044AD35C03F02B
:103360001F03D84008BD00BF00100240DC4A00081F
:10337000F8B504460F46584BDB6813F0030F18D01E
:10338000554BDB6803F003030268934202D001252A
:103390002846F8BD002A00F09D804F4BDB68C3F340
:1033A000021301334268934201D00125F0E7002562
:1033B00009E00368022B56D0032B5BD0012B41D0D0
:1033C0000125002DE4D1444A136823F08063136083
:1033D000FEF76EFC0646404B1B6813F0006F05D0ED
:1033E000FEF766FC831B022BF5D90325002DCFD1F8
:1033F000002F4DD138490B6923F0784323F4FE4365
:10340000A068E268D20642EA002213430B61324A06
:10341000136843F080631360FEF74AFC06462E4BA8
:103420001B6813F0006F05D1FEF742FC831B022BD3
:10343000F5D90325002DABD1274A1369A1690B43A8
:103440001361A5E7244A126812F0020F1ED0224829
:10345000C26822F073026168013943EA0113134321
:10346000C3600025ADE71C4A126812F4806FEED1EC
:103470000125A6E7184A126812F4003FE7D1164A60
:10348000126812F4802FE2D101259AE7012598E70E
:10349000012F0FD01048026922F0C06222F4FE42D0
:1034A000A16863695B08013B5B0643EA01231343A0
:1034B0000361ACE70848026922F4C00222F4FE422C
:1034C000A16823695B08013B5B0543EA01231343C1
:1034D00003619CE701255BE7001002402DE9F04104
:1034E00082B00446036813F4006F25D0436CB3F533
:1034F000000F06D0B3F5400F12D04BB1012637466E
:103500001CE0B34AD36843F48033D360002708E05B
:1035100000210430FFF72CFF074610B106460DE0EE
:103520000027AB4AD2F8883023F44003616C0B4388
:10353000C2F88830002601E000263746236813F4DD
:10354000003F6BD0A24B9B6D13F0805F4CD1A04B22
:103550009A6D42F080529A659B6D03F080530193FF
:10356000019B4FF001089B4A136843F4807313607A
:10357000FEF79EFB0546974B1B6813F4807F05D131
:10358000FEF796FB401B0228F5D90327002F40D1F8
:103590008F4BD3F8903013F4407315D0A26D9A423C
:1035A00012D08B4AD2F8903023F44073D2F89010A6
:1035B00041F48031C2F89010D2F8901021F480319B
:1035C000C2F89010C2F8903013F0010F0FD1002F05
:1035D00040F0E3807E4AD2F8903023F44073A16D2E
:1035E0000B43C2F8903015E04FF00008BBE7FEF740
:1035F0005FFB0546764BD3F8903013F0020FE6D10F
:10360000FEF756FB401B41F288339842F2D903275C
:10361000DDE73E46B8F1000F40F0C180236813F0AB
:10362000010F08D06A4AD2F8883023F00303216AD8
:103630000B43C2F88830236813F0020F08D0644AA5
:10364000D2F8883023F00C03616A0B43C2F888304B
:10365000236813F0040F08D05D4AD2F8883023F0B5
:103660003003A16A0B43C2F88830236813F0200F9F
:1036700008D0574AD2F8883023F44063E16A0B43FC
:10368000C2F88830236813F4007F08D0504AD2F87B
:10369000883023F44023E16B0B43C2F88830236861
:1036A00013F4806F08D04A4AD2F8883023F44013CC
:1036B000216C0B43C2F88830236813F0400F08D008
:1036C000434AD2F8883023F44053216B0B43C2F8AD
:1036D0008830236813F0800F08D03D4AD2F8883034
:1036E00023F44043616B0B43C2F88830236813F422
:1036F000807F08D0364AD2F8883023F44033A16B5B
:103700000B43C2F88830236813F4002F0FD0304ADF
:10371000D2F8883023F04063A16C0B43C2F88830A4
:10372000A36CB3F1006F40D0B3F1806F42D0236837
:1037300013F4802F0FD0264AD2F8883023F040634C
:10374000E16C0B43C2F88830E36CB3F1006F39D001
:10375000B3F1806F40D0236813F4804F0CD01C4A23
:10376000D2F8883023F04053216D0B43C2F88830E3
:10377000236DB3F1805F37D0236813F4004F08D076
:10378000134AD2F8883023F08043616D0B43C2F8AE
:103790008830304602B0BDE8F0813E463AE70C4A38
:1037A000936D23F08053936538E7D36843F4801317
:1037B000D360BCE70121201DFFF7DAFD0028B6D059
:1037C0000646B4E7D36843F48013D360C3E700BF71
:1037D00000100240007000400121201DFFF7C8FDCD
:1037E0000028B8D00646B6E70221201DFFF7C0FD2D
:1037F0000028C1D00646BFE730B4036A026A22F04F
:10380000010202624568826922F4803222F073026A
:103810000C68224323F002038C682343164CA04219
:1038200007D004F5A054A04203D004F58064A04260
:1038300007D1046A24F00404046223F00803CC686E
:1038400023430D4CA04207D004F5A054A04203D05E
:1038500004F58064A04207D125F4407C4C6944EA19
:103860000C0C8D6945EA0C05456082614A6842632B
:10387000036230BC704700BF002C014030B4036AC3
:10388000026A22F4807202624468C26922F48032C1
:1038900022F073020D682A4323F400738D6843EA13
:1038A0000523134DA84219D0114DA84207D005F5A4
:1038B000A055A84203D005F58065A84207D124F49D
:1038C00040544D6944EA05148D6944EA0514446086
:1038D000C2614A68C263036230BC7047056A25F45E
:1038E0008065056223F40063CD6843EA0523DBE7C6
:1038F000002C014030B4026A036A23F4805303624F
:103900004468C36923F0807323F4E6430D6843EAF7
:10391000052322F400528D6842EA05320B4DA8427D
:1039200007D005F5A055A84203D005F58065A8424B
:1039300004D124F480444D6944EA85144460C36191
:103940004B680364026230BC704700BF002C01402A
:1039500030B4036A026A22F4803202624468426D23
:1039600022F4803222F070020D682A4323F40033DF
:103970008D6843EA05430B4DA84207D005F5A055D5
:10398000A84203D005F58065A84204D124F4803410
:103990004D6944EA0524446042654A6882650362D1
:1039A00030BC7047002C014030B4026A036A23F433
:1039B000801303624468436D23F0807323F4E04373
:1039C0000D6843EA052322F400128D6842EA05528D
:1039D0000B4DA84207D005F5A055A84203D005F528
:1039E0008065A84204D124F480244D6944EA8524EA
:1039F000446043654B68C365026230BC704700BFDA
:103A0000002C0140704710B5846A636A83420ED06F
:103A1000A36A834214D0E36A83421AD0236B8342A1
:103A200020D02046FDF74AFD0023237710BD012357
:103A30002377C369002BF4D1012384F83E30F0E7EB
:103A400002232377C369002BEBD1012384F83F3095
:103A5000E7E704232377C369002BE2D1012384F82D
:103A60004030DEE708232377C369002BD9D1012337
:103A700084F84130D5E7704710B5846A636A8342A1
:103A80000BD0A36A834210D0E36A834210D0236B29
:103A9000834204D10823237701E0012323772046C2
:103AA000FFF7E9FF0023237710BD02232377F6E712
:103AB00004232377F3E7704710B5846A636A83426F
:103AC0000CD0A36A834213D0E36A834216D0236BDF
:103AD000834219D0012384F83D3003E0012323778A
:103AE00084F83E302046FFF7E6FF0023237710BD21
:103AF00002232377012384F83F30F3E7042323775D
:103B0000012384F84030EDE708232377012384F86C
:103B10004130E7E703681C4A904202D0B0F1804F81
:103B200003D123F070034A681343174A90420AD026
:103B3000B0F1804F07D002F5A052904203D002F5B9
:103B40008062904203D123F44073CA68134323F088
:103B500080034A6913438A68C2620A6882620A4A19
:103B6000904207D002F5A052904203D002F5806245
:103B7000904201D10A690263026842F004020260C5
:103B80000122426103607047002C014060B310B510
:103B9000044690F83D3013B3022384F83D302146AB
:103BA00051F8040BFFF7B6FF012384F8483084F87E
:103BB0003E3084F83F3084F8403084F8413084F857
:103BC000423084F8433084F8443084F8453084F837
:103BD000463084F8473084F83D30002010BD80F82E
:103BE0003C30FDF777FFD7E70120704760B310B591
:103BF000044690F83D3013B3022384F83D3021464B
:103C000051F8040BFFF786FF012384F8483084F84D
:103C10003E3084F83F3084F8403084F8413084F8F6
:103C2000423084F8433084F8443084F8453084F8D6
:103C3000463084F8473084F83D30002010BD80F8CD
:103C40003C30FFF7DFFED7E70120704730B4036A4E
:103C5000026A22F0100202624468826922F08072D5
:103C600022F4E6420D6842EA052223F020038D6823
:103C700043EA0513134DA84219D0124DA84207D0AC
:103C800005F5A055A84203D005F58065A84207D1E7
:103C900024F440644D6944EA85048D6944EA85044E
:103CA000446082614A688263036230BC7047056A7F
:103CB00025F04005056223F08003CD6843EA051333
:103CC000DBE700BF002C014038B590F83C30012BF9
:103CD00000F0958004460D46012380F83C30142AFC
:103CE00000F28880DFE802F00B8686861F868686D3
:103CF00034868686488686865D868686710000685C
:103D0000FFF77AFD2268936943F008039361226804
:103D1000936923F0040393612268936929690B4333
:103D20009361002067E00068FFF790FF22689369C5
:103D300043F4006393612268936923F48063936181
:103D400022689369296943EA01239361002052E0C4
:103D50000068FFF793FD2268D36943F00803D3613D
:103D60002268D36923F00403D3612268D3692969E7
:103D70000B43D36100203EE00068FFF7BBFD2268E3
:103D8000D36943F40063D3612268D36923F4806369
:103D9000D3612268D369296943EA0123D3610020F2
:103DA00029E00068FFF7D4FD2268536D43F0080353
:103DB00053652268536D23F0040353652268536DE5
:103DC00029690B435365002015E00068FFF7ECFDFF
:103DD0002268536D43F4006353652268536D23F4E6
:103DE000806353652268536D296943EA0123536553
:103DF000002000E00120002384F83C3038BD022080
:103E0000FCE701F01F01012303FA01FC036A23EA26
:103E10000C030362036A02FA01F10B430362704769
:103E200070B5044616460D46002932D190F83E0082
:103E3000C0B2022814BF00200120002840F03481C5
:103E4000002D56D194F83E20D2B2012A14BF002290
:103E50000122002A00F02A81002E00F02981002B87
:103E600000F02881002D74D1022284F83E200C2D10
:103E700000F22281DFE815F08900200120012001F5
:103E8000C600200120012001DD00200120012001C9
:103E9000F40004290DD0082913D00C2919D01029B9
:103EA0001FD090F84300C0B2022814BF00200120A8
:103EB000C3E790F83F00C0B2022814BF00200120E1
:103EC000BBE790F84000C0B2022814BF00200120D8
:103ED000B3E790F84100C0B2022814BF00200120CF
:103EE000ABE790F84200C0B2022814BF00200120C6
:103EF000A3E7042D0DD0082D13D00C2D19D0102DB3
:103F00001FD094F84320D2B2012A14BF002201220C
:103F10009FE794F83F20D2B2012A14BF0022012269
:103F200097E794F84020D2B2012A14BF0022012260
:103F30008FE794F84120D2B2012A14BF0022012257
:103F400087E794F84220D2B2012A14BF002201224E
:103F50007FE7042D09D0082D0BD00C2D0DD0102D8E
:103F60000FD0022284F8432081E7022284F83F2008
:103F70007DE7022284F8402079E7022284F841207C
:103F800075E7022284F8422071E7626A5149D162E2
:103F9000626A51491163626A50495163226834323E
:103FA0003146606AFEF7FEFA002840F087802268FA
:103FB000D36843F40073D360012229462068FFF7D9
:103FC00020FF2368464A934207D002F5A05293424D
:103FD00003D002F58062934203D15A6C42F400424E
:103FE0005A6423683E4A934250D0B3F1804F4DD07B
:103FF00002F5A052934249D01A6842F001021A60B9
:10400000002054E0A26A3349D162A26A32491163A6
:10401000A26A32495163226838323146A06AFEF7FB
:10402000C1FA00284CD12268D36843F48063D3607E
:10403000C2E7E26A2749D162E26A27491163E26A6C
:104040002649516322683C323146E06AFEF7AAFAFB
:10405000002837D12268D36843F40063D360ABE70C
:10406000226B1C49D162226B1B491163226B1B49D5
:104070005163226840323146206BFEF793FA18BB39
:104080002268D36843F48053D36095E79968154A52
:104090000A40062A1AD0B2F5803F19D01A6842F0B9
:1040A00001021A60002002E0022000E0012070BD41
:1040B0000120FCE70120FAE70120F8E70120F6E7FC
:1040C0000120F4E70120F2E70120F0E70020EEE70D
:1040D0000020ECE7073A0008793A0008B93A0008EE
:1040E000002C01400700010038B504460D460C299C
:1040F00000F28680DFE801F00784848437848484BA
:104100004084848449000268D36823F40073D36038
:10411000406AFEF784FA002229462068FFF771FE04
:104120002368384A934239D002F5A052934235D0E1
:1041300002F58062934231D02268136A03F0113392
:1041400023F0885343B9116A40F24443194203D122
:10415000136823F001031360002D30D1012384F88C
:104160003E3000204DE00268D36823F48063D360C2
:10417000806AFEF754FACEE70268D36823F400633E
:10418000D360C06AFEF74BFAC5E70268D36823F430
:104190008053D360006BFEF742FABCE71A6A02F064
:1041A000113222F08852002AC6D1196A40F24442E4
:1041B0001142C1D15A6C22F400425A64BCE7042D6A
:1041C0000AD0082D0DD00C2D10D0102D13D00123A6
:1041D00084F84330002014E0012384F83F300020AD
:1041E0000FE0012384F8403000200AE0012384F826
:1041F0004130002005E0012384F84230002000E037
:10420000012038BD002C014090F83C30012B3AD001
:1042100010B4012380F83C30CB6823F440738A68E3
:10422000134323F480634A68134323F400630A684A
:10423000134323F480530A69134323F400534A6958
:10424000134323F480438A6A134323F470238A6957
:1042500043EA024302680D4CA24206D05364002395
:1042600080F83C30184610BC704723F470034C6A49
:1042700043EA045323F08073CC69234323F0007393
:10428000096A0B43EAE70220704700BF002C014097
:10429000026852E8003F23F4907342E8003100299D
:1042A000F6D1026802F1080353E8003F23F001034E
:1042B000083242E800310029F3D1036E012B06D009
:1042C0002023C0F8803000230366836670470268AD
:1042D00052E8003F23F0100342E800310029F6D1F4
:1042E000EEE7000010B504460168836802691343D5
:1042F00042691343C26913430868954A0240134355
:104300000B602268536823F44053E1680B43536009
:10431000A16922688F4B9A4201D0236A194393689E
:1043200023F430630B43936023688B4A93421FD07E
:104330008A4A934230D08A4A934246D0854A934271
:1043400055D0102283498B427AD0E069B0F5004FF6
:1043500000F0A680082A00F20F81DFE812F0CE00FC
:10436000E500CC000D01E8000D010D010D01EB0091
:1043700002F55842D2F8882002F00302032A09D835
:10438000DFE802F002044A060122DBE70422D9E753
:104390000822D7E71022D5E702F5E632D2F88820C6
:1043A00002F00C020C2A0ED8DFE802F0070D0D0D0A
:1043B000090D0D0D380D0D0D0B000022C2E7042272
:1043C000C0E70822BEE71022BCE702F5E432D2F8CB
:1043D000882002F03002202A22D004D812B3102AFA
:1043E00022D10422AEE7302A20D10822AAE702F522
:1043F000C832D2F8882002F44062B2F5006F17D0BC
:1044000005D8BAB1B2F5806F16D104229AE7B2F599
:10441000406F13D1082295E7022293E7022291E729
:1044200002228FE700228DE710228BE7102289E716
:10443000022287E7002285E7102283E7102281E726
:10444000082A7AD8DFE802F008792A792779797979
:1044500005004FF4004003E0FEF766FF00286ED031
:10446000626802EB420383426BD8B0EB023F6AD82A
:10447000010E00025308C0184FF0000341F1000183
:10448000FCF722FEA0F54072364B9A425DD82368B5
:10449000D860002044E0FEF7EDFADFE73248DFE7BE
:1044A000082A63D8DFE802F007210562246262620D
:1044B0000B002D4803E0FEF737FF002858D0626854
:1044C000530803EB4000B0FBF2F0A0F110024FF6EE
:1044D000EF739A424ED883B223F00F03C0F3420029
:1044E00018432368D86000201AE0FEF72FFFE4E7A6
:1044F000FEF7C0FAE1E71C4803E0FEF715FF0028CD
:104500003CD0636800EB5300B0FBF3F0A0F1100265
:104510004FF6EF739A4233D8236880B2D8600020F8
:104520000023A366E36610BDFEF710FFE7E7FEF782
:10453000A1FAE4E74FF40040E3E70120F0E70020B0
:10454000EEE70120ECE70120EAE70120E8E700BF01
:10455000F369FFEF00800040003801400044004054
:1045600000480040FFFC0F000024F4000120D7E7C2
:104570000020D5E70120D3E70120D1E70020CFE7D5
:104580000120CDE7436A13F0080F06D00268536894
:1045900023F40043416B0B435360436A13F0010F54
:1045A00006D00268536823F40033816A0B435360DA
:1045B000436A13F0020F06D00268536823F4803375
:1045C000C16A0B435360436A13F0040F06D00268BC
:1045D000536823F48023016B0B435360436A13F049
:1045E000100F06D00268936823F48053816B0B434D
:1045F0009360436A13F0200F06D00268936823F497
:104600000053C16B0B439360436A13F0400F0AD011
:104610000268536823F48013016C0B435360036CEE
:10462000B3F5801F0BD0436A13F0800F06D00268E9
:10463000536823F40023816C0B4353607047026876
:10464000536823F4C003416C0B435360EBE72DE93F
:10465000F84305460E4617469946DDF820802C683B
:10466000E46936EA04030CBF4FF0010C4FF0000C74
:10467000BC4536D1B8F1FF3FF1D0FDF719FBA0EBF7
:104680000900404530D8B8F1000F2FD02B681A68C8
:1046900012F0040FE3D0802EE1D0402EDFD0DA6993
:1046A00012F0080F11D1DA6912F4006FD7D04FF46D
:1046B00000621A622846FFF7EBFD2023C5F884301C
:1046C000002385F8783003200CE008241C6228467B
:1046D000FFF7DEFDC5F88440002385F8783001201F
:1046E00000E00020BDE8F8830320FBE70320F9E7A2
:1046F0002DE9F04182B01E46C36F202B5BD10446EA
:104700000D46904600295AD00AB9012054E00023F2
:10471000C0F884302123C367FDF7CAFA0746A4F81E
:104720005080A4F85280A368B3F5805F02D04FF0A8
:1047300000081AE0236963B34FF0000815E0202356
:10474000E367032038E038F8023B2268C3F308032C
:104750009362E36F03F02103212B32D1B4F852208E
:1047600092B2013A92B2A4F85220B4F852309BB2FD
:1047700093B100963B46002280212046FFF767FF59
:104780000028DCD1002DDED015F8012B23689A62B9
:10479000DFE7A8460025E8E700963B4600224021D7
:1047A0002046FFF754FF10B92023E36704E02023DD
:1047B000E367032000E0022002B0BDE8F0810120A1
:1047C000FAE70120F8E730B583B004460023C0F8CB
:1047D0008430FDF76DFA05462268126812F0080F62
:1047E0000FD123681B6813F0040F26D12023E36741
:1047F000C4F8803000202066606684F8780003B03A
:1048000030BD6FF07E430093034600224FF4001149
:104810002046FFF71CFF0028E3D0226852E8003F43
:1048200023F0800342E800310029F6D12023E3671A
:10483000002384F878300320E1E76FF07E43009393
:104840002B4600224FF480012046FFF700FF00288E
:10485000CCD0226852E8003F23F4907342E8003144
:104860000029F6D1226802F1080353E8003F23F043
:104870000103083242E800310029F3D12023C4F8B3
:104880008030002384F878300320B8E768B310B58F
:104890000446C36F03B32423E3672268136823F03D
:1048A00001031360636AE3B92046FFF71BFD01288B
:1048B00011D02268536823F49043536022689368B0
:1048C00023F02A0393602268136843F00103136006
:1048D0002046FFF778FF10BD80F87830FDF75EF9CD
:1048E000D9E72046FFF74EFEDEE7012070470000C3
:1048F000DFF834D0FDF796F90C480D490D4A002336
:1049000002E0D458C4500433C4188C42F9D30A4A84
:104910000A4C002301E013600432A242FBD3FBF7F0
:104920007BFCFCF7D3FFFEE7000001200000002025
:1049300078000020684B000878000020F811002063
:10494000FEE70000F8B500BFF8BC08BC9E46704703
:10495000F8B500BFF8BC08BC9E46704700000000D8
:1049600049443D30782530336C5820444C433D2534
:104970006C6420444154413A20253032582025307F
:1049800032582025303258202530325820253032F8
:1049900058202530325820253032582025303258C2
:1049A0000D0A0000FFFFFFFEEFB4FECA58FE862688
:1049B000E51D7C731C97204D8E731C97E51D7CFEB6
:1049C0008626FECA58FEEFB4FFFFFF00000000007D
:1049D00000000000000000000000000000000001D6
:1049E0000101010102020203030404050506070890
:1049F000090A0B0C0D0F101113141618191B1D1F8B
:104A0000212325282A2C2F3134373A3D404346496B
:104A10004D5054575B5F63676B6F73777B808489FE
:104A20008D92979CA1A6ABB0B5BBC0C6CBD1D6DC4E
:104A3000E2E8EEF4FAFFFFFFFFFFFFFFFFFFFFFFDB
:104A4000FFFFFFFFFFFFFAF4EEE8E2DCD6D1CBC6B2
:104A5000C0BBB5B0ABA6A19C97928D8984807B77B3
:104A6000736F6B67635F5B5754504D494643403DDE
:104A70003A3734312F2C2A282523211F1D1B1918C2
:104A800016141311100F0D0C0B0A09080706050563
:104A900004040303020202010101010100000000FD
:104AA0000000000000000000000000000000000006
:104AB00000000000000000000000000000000000F6
:104AC00000000000000000000000000000000000E6
:104AD00000000000010203040607080900000000AE
:104AE00001020304A0860100400D0300801A0600A5
:104AF00000350C0040420F0080841E0000093D007C
:104B000000127A000024F40000366E010048E8012B
:104B1000006CDC02232D302B20000000686C4C0060
:104B200065666745464700003031323334353637E5
:104B300038394142434445460000000030313233A9
:104B400034353637383961626364656600000000C9
:084B5000A8C5FF7F0100000071
:084B5800F90100080000000053
:084B6000D10100080000000073
:104B68000400002000000000000000000000000019
:104B7800000000000000000000000000000000002D
:104B8800000000000000000000000000000000001D
:104B9800000000000000000000000000000000000D
:104BA80000000000000000000000000000000000FD
:104BB80000000000000000000000000000000000ED
:104BC800000000000100000000093D000100000095
:084BD8001000000000000000C5
:04000005080048F1B6
:00000001FF
